:020000040800F2
:10000000A03600209D010008C10F0008350C000833
:10001000BD0F0008110A0008651400080000000068
:100020000000000000000000000000004110000877
:10003000310C000800000000D10F00087510000806
:10004000B7010008B7010008B7010008B7010008B0
:10005000B7010008B7010008B7010008B7010008A0
:10006000B7010008B7010008B7010008B701000890
:10007000B7010008B7010008B7010008B701000880
:10008000B7010008B7010008B7010008B701000870
:10009000150A0008B7010008B7010008B7010008F9
:1000A000B7010008B7010008B7010008B701000850
:1000B000B7010008B7010008B7010008B701000840
:1000C000B7010008B7010008B7010008B701000830
:1000D000B701000835130008B7010008B701000890
:1000E000B7010008B7010008B7010008B701000810
:1000F000B7010008B7010008B7010008B701000800
:1001000000000000B7010008B7010008B7010008AF
:10011000B7010008B7010008B7010008B7010008DF
:10012000B7010008B7010008B7010008B7010008CF
:10013000B70100080000000000000000B70100083F
:10014000B7010008B7010008B7010008B7010008AF
:10015000B7010008B7010008B7010008051400083E
:10016000B7010008B7010008B7010008B70100088F
:10017000B7010008B7010008B7010008000000003F
:10018000B7010008B7010008DFF80CD000F03EFB13
:1001900000480047FD260008A0360020064880479A
:1001A00006480047FEE7FEE7FEE7FEE7FEE7FEE75C
:1001B000FEE7FEE7FEE7FEE7B1110008890100084F
:1001C00038B5D0E90221491E01EB410102EBC10122
:1001D0004268C1EB011102EB81010268C1EB011120
:1001E00002EB8102D0E9043101EB410103EB810113
:1001F0003023A1F5527191FBF3F4174D6C4302EBE0
:10020000C41291FBF3F403FB141100921A2902DBD0
:10021000124B1A4400920C2291FBF2F3104C6343F0
:10022000009C04EBC313009391FBF2F302FB131148
:100230000C4A08E0491E40F2A324535C6343009C2F
:1002400004EBC31300930029F4DC0146684600F078
:10025000A7F8009838BD00003F0C0F008051010046
:1002600067C20300BC6D000840EA01039B0703D08E
:1002700009E008C9121F08C0042AFAD203E011F8E5
:10028000013B00F8013B521EF9D27047D2B201E0A7
:1002900000F8012B491EFBD270470022F6E710B58B
:1002A00013460A4604461946FFF7F0FF204610BDE4
:1002B00030B505462A460B4612F8010B13F8014BE0
:1002C00008B1A042F8D01CB1002802D06D1CF1E7A3
:1002D000284630BDCAB2401E10F8011F8A4202D023
:1002E0000029F9D100207047421C10F8011B002999
:1002F000FBD1801A704770B5064606F0EDF8046829
:1003000005460A220021304600F090F82C6070BDAE
:1003100030B50B46014600202022012409E021FAD5
:1003200002F59D4205D303FA02F5491B04FA02F5D2
:100330002844151EA2F10102F1DC30BD2DE9F05F69
:100340000546002092469B46884606468146402444
:100350001BE0284641464746224600F078FA5346BD
:100360005A46C01A914110D311461846224600F051
:100370005FFA2D1A67EB01084F4622460120002143
:1003800000F056FA17EB00094E41201EA4F10104BB
:10039000DFDC484631462A464346BDE8F09F000070
:1003A00010B500683C22B0FBF2F302FB1303B0FB74
:1003B000F2F00B60B0FBF2F302FB1303B0FBF2F0C0
:1003C00018224B60B0FBF2F302FB1303B0FBF2F018
:1003D000021D8B600723B2FBF3F403FB14228000A1
:1003E00040F2B55300F66C308A61B0FBF3F2B0FB1B
:1003F000F3F403FB1400443280084A61C8613B28CF
:1004000002D3920700D0401C0022074C13460A6119
:10041000E25C824203D8801A5B1C0B61F8E7401C47
:10042000C860084610BD0000C86D00082DE9F047FF
:1004300091460F4680460446002614F8015B2DB114
:1004400000F028FA0068405DC007F6D12B2D02D0DD
:100450002D2D18D0641E4A463946204600F01EFA5B
:1004600027B13968A14201D1C7F8008071054FF06A
:1004700002040BD54042002803DD06F02DF804608D
:10048000A007BDE8F08746F48066E4E70028F8DAC4
:1004900006F022F804606FF00040F2E72DE9FE4F0D
:1004A000804681EA0300C00F0C46009021F0004115
:1004B00023F00045B8EB0200A94105D24046214691
:1004C00090461C460B46024623F00040104347D09E
:1004D000270DC7F30A00C3F30A510290401A019096
:1004E00040286BDAC3F3130040F4801B0098924657
:1004F00020B10023D2EB030A63EB0B0B01985946A2
:10050000C0F14002504600F093F906460D465046B1
:100510005946019A00F0ABF910EB08006141002444
:1005200087EA115284EAE7731A4340D0009A62B313
:10053000019A012A4FEA075215DC001B61EB020108
:100540004FF0004202EA0752CDE90042001C41F59B
:10055000801132462B4600F0FFF903B0BDE8F08F62
:1005600040462146F9E7001B61EB0201001C41F502
:10057000801300185B412018A2F5001747EB030118
:1005800040EAD570B6196D4111E06D084FEA3606A4
:1005900045EAC0754FEA0752001B61EB0201001CDF
:1005A00041F5801149084FEA3000001951413246A7
:1005B0002B4603B0BDE8F04F00F0BFB90098012210
:1005C00040000023D0EB020263EBE0730098214669
:1005D0004FEAE074B8EB000061EB0401E9E783F057
:1005E00000435BE781F0004158E72DE9FE4F81EAC7
:1005F000030404F0004421F0004100944FF0000B8C
:1006000023F0004350EA01045ED052EA03045BD0B9
:10061000C3F30A54C1F30A552C44A4F2F3340194F1
:10062000A0FB0254C1F3130141F48011C3F313037F
:1006300043F4801301FB024400FB034E840A970A33
:1006400044EA815447EA8357A4FB076802958D0A60
:1006500005FB07854FEA932C04FB0C542705029DEC
:100660004FEA065847EA1637B5EB08056EEB070C5C
:10067000870E920E47EA811742EA8312A7FB020116
:10068000B6EB0B0164EB00042B0D43EA0C335E1850
:1006900044EB1C50DA465146E7FB0201C5F3130454
:1006A0004FEA0B3343EA14534FEA0432019C43EA06
:1006B0000603A4F10C040294009CCDE900B400F000
:1006C0004BF903B0BDE8F08F00200146F9E72DE9B2
:1006D000F04D81EA030404F0004B21F0004514467C
:1006E0004FF0000A23F0004150EA050220D054EAFE
:1006F00001021DD0C5F30A570246C5F31303C1F327
:100700001300C1F30A5640F4801543F48013A7EB9D
:100710000608101BD64608F2FD3873EB050002D31D
:1007200008F1010801E092185B41B8F1000F03DA0B
:1007300000200146BDE8F08D00204FF480110646F0
:1007400084460EE0171B73EB050705D3121B63EB02
:10075000050306434CEA010C49084FEA30009218A1
:100760005B4150EA0107EDD152EA030012D082EA60
:10077000040083EA0501084305D0101BAB4106D2F3
:100780000122002306E000224FF0004302E06FF058
:10079000010253101AEB06004CEB085110EB0A0053
:1007A00041EB0B01BDE8F04D00F0C7B8C1F30A52B0
:1007B000C1F3130140F2FF3341F480119A4202DA8F
:1007C00000200146704740F233439A42A2F233427E
:1007D00002DC524200F03BB800F02AB830B5041EEB
:1007E00071F1000404DB4FF00044404264EB01016E
:1007F000141E73F1000405DB1C464FF00043524207
:1008000063EB0403994208BF904230BD064C074D8C
:1008100006E0E06840F0010394E8070098471034D0
:10082000AC42F6D3FFF7B4FC10780008307800082B
:10083000202A04DB203A00FA02F1002070479140A0
:10084000C2F1200320FA03F3194390407047202A95
:1008500004DB203A21FA02F00021704721FA02F36A
:10086000D040C2F120029140084319467047202A27
:1008700006DBCB17203A41FA02F043EAE07306E0C8
:1008800041FA02F3D040C2F12002914008431946D8
:100890007047000000487047586E00082DE9F05F6F
:1008A00082460078002715468B460AF10104B946B6
:1008B000302801D09DB113E014F8010B01277828EE
:1008C00003D0582801D045B10AE00DB1102D07D151
:1008D0000027102514F8010B02E0082500E00A2586
:1008E0000026B0460EE005FB080005FB06F10127D7
:1008F00001EB10461FFA80F8B6F5803F00D3B946E9
:1009000014F8010B294600F075F80028EBDABBF16A
:10091000000F05D00FB1641E00E05446CBF8004034
:10092000B9F1000F06D005F0D7FD02210160C81E05
:10093000BDE8F09F48EA0640FAE710B5141E73F1CF
:10094000000408DA401C41F1000192185B411A438F
:1009500001D120F0010010BD2DE9F04D92469B46DB
:1009600011B1B1FA81F202E0B0FA80F22032904681
:10097000FFF75EFF04460F4640EA0A0041EA0B011A
:1009800053465A46084313D0114653EA010019D082
:10099000C8F140025046FFF75AFF05460E46504642
:1009A00059464246FFF744FF084305D0012004E0C2
:1009B00020463946BDE8F08D0020054346EAE07642
:1009C0002C4337430A986305E40AA0EB0800002291
:1009D000FD0A44EA47540A3002D500200146E9E7FF
:1009E000010510196941DDE9084500196941BDE8B3
:1009F000F04DA2E73A2800D2303820F02002412AF8
:100A000001D3A2F13700884201D34FF0FF30704785
:100A1000FFE7FEE780B584B040F28852C2F20002E0
:100A2000019246F20040C4F20000002101F0ACFA4D
:100A30000198006840F2833188422FD1FFE740F2ED
:100A40008850C2F200000B300390039800782228EF
:100A50001DD1FFE700200290FFE70298052815DC72
:100A6000FFE7039A029988188078527802EB4202D5
:100A700001EB420140F21802C2F20002114401F8F7
:100A8000060CFFE7029801300290E6E7FFE740F22C
:100A90001701C2F200010120087006E040F21601C1
:100AA000C2F2000101200870FFE70020C4F202003A
:100AB000042101F0CDFC04B080BD000080B582B0FF
:100AC0000190FFE740F28852C2F20002009246F223
:100AD0000040C4F20000002101F056FA00980068BE
:100AE000B0F5C07F28D1FFE740F28850C2F2000085
:100AF000007A08BBFFE740F28850C2F20000807A1B
:100B0000022819D1FFE740F21701C2F200010120CB
:100B1000087040F28850C2F20000C17A027B47F2AE
:100B20000C20C0F6000005F0A1FC0020C4F2020079
:100B3000042101F08DFC06E040F21601C2F2000132
:100B400001200870FFE7642001F0C8FEBAE700004A
:100B500080B584B0039041F62D30C0F6000047F216
:100B6000FC73C0F600030121002201F0D3FF42F61E
:100B7000C851C2F20001086001F0DEFD47F2081022
:100B8000C0F6000005F072FC00F0CAFE00F0A2FC06
:100B90008DF80B00FFE79DF80B0001280DD0FFE753
:100BA00046F67860C0F6000005F060FC00F0B8FE84
:100BB00000F090FC8DF80B00EDE700F0EBFE8DF8F7
:100BC0000B00FFE79DF80B0001280BD0FFE746F66E
:100BD000A260C0F6000005F049FC00F0DBFE8DF8D5
:100BE0000B00EFE741F2AD20C0F6000000220192B9
:100BF000114601F0E3FE019A41F29920C0F600008F
:100C0000114601F0DBFE019A40F6BD20C0F600005F
:100C1000114601F0D3FE40F21801C2F2000101209A
:100C200048714FF0FF3001F059FEFFE7FEE700008A
:100C30007047000080B582B0FFE747F2EC00C0F6D5
:100C4000000005F013FC41F2883001F047FE01205E
:100C50000190019880F3138800F028FC80B586B0DD
:100C600000200290EFF305800390039818B1FFE78E
:100C70000120029017E004F07DFF01900198012807
:100C800010D0FFE7EFF310800490049830B9FFE72D
:100C9000EFF311800590059818B1FFE7012002904D
:100CA000FFE7FFE7FFE7029806B080BD70B592B09E
:100CB00040F21701C2F2000100200690087040F2D5
:100CC0001601C2F20001087040F6B411C2F2000130
:100CD0000220059001F0A6FA40F28851C2F200010C
:100CE000032001F09FFA41F2190003F05BFD4FF47D
:100CF000406003F057FD059A06990020C4F20200F7
:100D000007904FF40063049301F0F8FB049B0599EE
:100D1000069A079801F0A4FB049A07980921089104
:100D200001F02CFB059A069907984FF4805309931C
:100D300001F0E4FB0599069A0798099B01F090FBE6
:100D400007980899099A01F019FB40F26000C2F275
:100D5000000001680C9141680A9180680B9040F294
:100D60004E01C2F200010DA81222FFF77DFA0A9986
:100D70000B9A0C980D9BDDF838C00F9C109D119EAE
:100D8000EE46CEF80C60CEF80850CEF80440CEF80F
:100D900000C000F0E5FE12B070BD000080B588B064
:100DA00040F6024003F0FEFC41F2051003F0FAFCAD
:100DB00040F60000C4F20200029008210691402291
:100DC000009201F0DBFA029806998022049201F069
:100DD000D5FA009B0298022103910122019201F0B1
:100DE0003FFB009B0298039A0021059101F086FBCE
:100DF000019A02980399049B01F032FB0298039A2E
:100E0000049B059901F07AFB41F20040C4F2010015
:100E1000079003F0AFFE07984FF4E13103F0ECFDCB
:100E20000599079804F01EF80599079803F0F4FF58
:100E30000599079803F0AAFF0798042103F0B6FF6D
:100E40000699079803F0F8FF079803F023FF08B00E
:100E500080BD000080B58AB04FF4406003F0A2FC72
:100E60000020C4F202000690012208920723019399
:100E7000114601F0F5FA019B0698089A00210791A6
:100E800001F03CFB40F6014003F08CFC089940F275
:100E90000040C4F20200049002221023029301F0E9
:100EA000DFFA029B04980799089A01F027FB04983F
:100EB000089A20230393114601F0D2FA039B049869
:100EC0000799089A01F01AFB0498089A4FF4807366
:100ED0000593114601F0C4FA0498059B0799089AF6
:100EE00001F00CFB06980799089A4FF40043099308
:100EF00001F0B6FA06980799089A099B01F0FEFAE4
:100F00000AB080BD80B588B040F6014003F04AFCCD
:100F100041F2041003F046FC40F20040C4F202002B
:100F20000390072100914022019201F027FA0099D5
:100F300003988022059201F021FA019B0398022177
:100F400004910122029201F08BFA019B0398049A0A
:100F50000021069101F0D2FA029A03980499059BA8
:100F600001F07EFA0398049A059B069901F0C6FAEF
:100F700041F20000C4F20100079003F0FBFD079866
:100F80004FF4E13103F038FD0699079803F06AFF4A
:100F90000699079803F040FF0699079803F0F6FEBC
:100FA0000798042103F002FF0798082103F044FF8B
:100FB000079803F06FFE08B080BD0000FFE7FEE772
:100FC000704700000000000000000000000000006A
:100FD000EFF30980BFF36F8F154B1A681EF0100FE7
:100FE00008BF20ED108A20E9F04F10602DE90900BC
:100FF0004FF0100080F31188BFF34F8FBFF36F8F56
:1010000004F0A6F94FF0000080F31188BDE8090054
:1010100019680868B0E8F04F1EF0100F08BFB0EC78
:10102000108A80F30988BFF36F8F704700BF00BF3D
:10103000100100200000000000000000000000007F
:10104000074B19680868B0E8F04F80F30988BFF3D0
:101050006F8F4FF0000080F31188704700BF00BF12
:101060001001002080B56FF00400002100F0FCF9B1
:1010700080BD000080B54EF21000CEF20000006886
:1010800004F078FD012803D0FFE704F00DFAFFE734
:1010900080BD00008DB040F20670C0F608100490CC
:1010A00040F20120C0F20340039000200290019022
:1010B00043F60800C4F202000068C0F381000C90FF
:1010C0000C98009040B1FFE7009801280ED0FFE790
:1010D0000098022814D04AE040F20801C2F2000150
:1010E00042F20040C0F2F40008604AE040F2080119
:1010F000C2F2000141F20020C0F27A00086040E034
:1011000043F60400C4F20200016801F03F010B91B4
:101110000168C1F388110A91016801F4403202218B
:1011200001EBD2310891006800F480000990099821
:10113000B0F5800F06D1FFE741F20020C0F27A003F
:10114000079005E042F20040C0F2F4000790FFE78C
:1011500007980B99B0FBF1F00A9948430899B0FB46
:10116000F1F040F20801C2F20001086009E040F22B
:101170000801C2F2000142F20040C0F2F40008602F
:10118000FFE743F60800C4F202000068C0B200099D
:101190000690069901A8405C059040F20801C2F251
:1011A00000010868059AD04008600DB07047000043
:1011B00080B582B04EF68851CEF20001086840F446
:1011C0007000086043F60001C4F20201086840F0B4
:1011D0000100086043F60801C4F20201086840F00B
:1011E0008000086000200190FFE701984CF24F3129
:1011F000884205D8FFE7FFE7019801300190F4E746
:1012000043F60801C4F20201086840F0900008604B
:1012100000200190FFE701984CF24F31884205D839
:10122000FFE7FFE7019801300190F4E743F608017A
:10123000C4F20201086820F00300086043F60002CF
:10124000C4F2020210684FF6FF73CFF6F66318403F
:101250001060106820F48020106000200860FFE714
:1012600043F60800C4F202000068012008B9FFE755
:10127000F6E743F60401C4F2020143F21000C2F2A1
:101280000040086043F60C01C4F20201002008602F
:1012900003F06EFB02B080BD80B582B00190FFE725
:1012A0004FF4FA7001F01AFBFAE7000080B584B041
:1012B0000390FFE70020C4F20200022101F0C8F809
:1012C0004FF47A7001F00AFB40F6B411C2F200014B
:1012D000019140F2C13008600020029048604872DD
:1012E000087208228A722222CA72087348738873AD
:1012F000C87308744874887446F20040C4F2000051
:1013000000F0ECFED6E7000080B582B001900198B5
:1013100003F056F90090009820F00100009000982A
:1013200028B1FFE70098016840688847FFE702B0EE
:1013300080BD000080B582B000208DF8070041F22A
:101340000000C4F2010040F20531C0F2050103F0D3
:10135000EDFC002853D0FFE741F20000C4F2010089
:10136000052103F0B3FC002849D0FFE741F200005B
:10137000C4F2010003F0ECFB00F07F008DF80700E1
:101380009DF8071041F20040C4F2010003F0E8FBB1
:10139000FFE741F20040C4F20100072103F096FC90
:1013A00008B9FFE7F5E740F21400C2F20000008838
:1013B0000004002822D4FFE740F21400C2F200002B
:1013C0000088B0F5806F0FDAFFE79DF8070040F264
:1013D0001403C2F200031A88511C198040F29C5178
:1013E000C2F20001885408E040F21401C2F2000188
:1013F000088840F400400880FFE7FFE7FFE702B0FD
:1014000080BD000080B582B000208DF8070041F259
:101410000040C4F2010040F20531C0F2050103F0C2
:1014200085FCE0B1FFE741F20040C4F20100052174
:1014300003F04CFC98B1FFE741F20040C4F2010018
:1014400003F086FB00F07F008DF807009DF8071081
:1014500041F20000C4F2010003F082FBFFE702B09A
:1014600080BD0000FFE7FEE782B08DF80700009125
:101470009DF9070000280AD4FFE7009800019DF9B4
:1014800007104EF20042CEF2000288540BE00098A2
:1014900000019DF8071001F00F014EF61452CEF234
:1014A00000028854FFE702B070470000BFF34F8F7F
:1014B0004EF60C51CEF20001086800F4E060042200
:1014C000C0F2FA5210430860BFF34F8FFFE700BF2E
:1014D000FDE7000080B58AB040F21401C2F20001BD
:1014E00000200880089047F2AD30C0F60000079059
:1014F000079940F29C50C2F20000FEF7D9FE089016
:101500003C208DF81B00FFE70898002867D1FFE713
:1015100000208DF81A00ADF81800FFE7BDF818009C
:1015200040F21401C2F200010988884242DAFFE762
:1015300007989DF81A10405C8DF817009DF81A0066
:1015400090B9FFE79DF81700BDF8182040F29C51B4
:10155000C2F20001895C884206D1FFE79DF81A00BB
:1015600001308DF81A001FE09DF81A0001281ADBDF
:10157000FFE7BDF8181040F29C50C2F20000405C3A
:101580009DF8171088420ED1FFE79DF81A00013030
:101590008DF81A009DF81A00072803D1FFE70120F3
:1015A000089007E0FFE7FFE7BDF818000130ADF84D
:1015B0001800B3E74FF47A7001F090F99DF81B0022
:1015C00001388DF81B009DF81B0038B9FFE747F282
:1015D000CB10C0F6000004F049FF00E094E747F2AA
:1015E000D430C0F6000047F2B531C0F600016422E5
:1015F00000F0F2FF8DF816009DF81600012807D1C3
:10160000FFE746F6F770C0F6000004F02FFF03E096
:1016100000208DF827007EE147F28730C0F60000F9
:1016200047F2EA31C0F60001642200F0D5FF8DF8E0
:1016300016009DF81600012807D1FFE746F6DE7078
:10164000C0F6000004F012FF03E000208DF8270030
:1016500061E147F2A330C0F600000021642200F0EF
:10166000BBFF8DF81600FFE740F21400C2F2000045
:1016700000880004002801D4FFE7F5E747F25C305A
:10168000C0F6000000F084FF049004980830049035
:10169000049947F22110C0F6000004F0E7FE002094
:1016A0008DF80B00FFE79DF80B00122810DCFFE718
:1016B00004989DF80B20805C40F69C11C2F200015A
:1016C0008854FFE79DF80B0001308DF80B00EAE726
:1016D00047F27E30C0F600000021642200F07CFF5B
:1016E0008DF81600FFE740F21400C2F200000088F7
:1016F0000004002801D4FFE7F5E747F26430C0F6A4
:10170000000000F045FF049004980830049004990C
:1017100047F25B10C0F6000004F0A8FE04980078C1
:1017200037284ED1FFE704984078302849D1FFE7A9
:1017300047F29A30C0F6000047F2B821C0F6000127
:10174000642200F049FF8DF816009DF8160001286C
:1017500036D0FFE747F23F30C0F6000047F2B53120
:10176000C0F60001642200F037FF8DF816009DF8E6
:101770001600012807D1FFE746F67F70C0F600008B
:1017800004F074FEFFE747F2E530C0F6000047F2D0
:10179000B531C0F60001642200F01EFF8DF816007E
:1017A0009DF81600012807D1FFE747F20A00C0F6AE
:1017B000000004F05BFEFFE700208DF82700AAE0A0
:1017C000FFE747F29030C0F6000047F2AF21C0F6C5
:1017D0000001642200F000FF8DF81600FFE79DF87D
:1017E000160001282CD0FFE747F23430C0F6000085
:1017F00047F2B531C0F60001642200F0EDFE8DF82D
:1018000016009DF81600012801D0FFE718E047F206
:101810004D00C0F6000004F029FE47F29030C0F6FB
:10182000000047F2AF21C0F600016422019200F0EF
:10183000D3FE014601988DF8161001F04FF8CEE75F
:1018400047F22630C0F6000047F2B531C0F600017D
:10185000642200F0C1FE8DF816009DF816000128E4
:1018600007D1FFE746F66570C0F6000004F0FEFD04
:10187000FFE742F2107001F031F846F65C60C0F606
:10188000000004F0F3FD47F2CB30C0F6000047F251
:10189000B531C0F600014FF47A7200F09DFE8DF86C
:1018A00016000A208DF80A00FFE79DF816000128AF
:1018B0002DD0FFE747F26600C0F6000004F0D6FD29
:1018C00047F2CB30C0F6000047F2B531C0F6000158
:1018D0004FF47A72009200F07FFE014600988DF876
:1018E000161000F0FBFF9DF80A0001388DF80A0081
:1018F0009DF80A0050B9FFE747F26600C0F6000005
:1019000004F0B4FD00208DF8270004E0CDE70120AD
:101910008DF82700FFE79DF827000AB080BD000082
:1019200080B586B047F29B00C0F6000004F09EFD33
:1019300040F22841C4F20201049110200190086095
:1019400046F6D160C0F6000004F090FD4FF4FA6056
:10195000039000F0C3FF019840F21841C4F2020165
:101960000291086047F23400C0F6000004F07EFDEA
:101970004FF47A7000F0B2FF029A03984FF480712E
:101980000591116000F0AAFF04990598086006B05F
:1019900080BD000080B592B000208DF8470047F26E
:1019A000D730C0F6000047F24321C0F600014FF4E3
:1019B000FA6200F011FE8DF84600FFE79DF8460040
:1019C00001282DD0FFE79DF8471047F2CD00C0F663
:1019D000000004F04BFD47F2D730C0F6000047F29C
:1019E0004321C0F600014FF4FA62049200F0F4FDC6
:1019F000014604988DF8461000F070FF9DF84700EE
:101A000001308DF847009DF847000A2807DBFFE703
:101A100047F27E00C0F6000004F028FD00E0CDE7AC
:101A200047F25221C0F6000140F69C12C2F20002B9
:101A300005A8039004F02AFD039847F2B531C0F6DB
:101A40000001642200F0C8FD8DF846009DF84600B4
:101A5000012808D1FFE746F6EB60C0F6000005A9B3
:101A600004F004FDFFE747F2C020C0F6000047F293
:101A7000B531C0F60001642200F0AEFD8DF84600DD
:101A80009DF84600012807D1FFE746F61E70C0F614
:101A9000000004F0EBFCFFE74FF47A70029000F0D6
:101AA0001DFF47F27B20C0F6000000F071FD47F2F9
:101AB000FC20C0F6000047F27C31C0F60001642231
:101AC000019200F089FD019A8DF8460047F2954099
:101AD000C0F6000047F2B531C0F60001009100F0F9
:101AE0007BFD0099019A8DF8460047F2A120C0F6CF
:101AF000000000F071FD014602988DF8461000F0DC
:101B0000EDFE47F26C20C0F6000000F041FD0298A7
:101B100000F0E4FE43F64130C0F60000002211461A
:101B200000F04CFF012012B080BD000080B582B0F3
:101B3000019047F20020C0F6000004F097FC40F24C
:101B40001401C2F20001088840F40040088042F607
:101B5000C850C2F20000006801F098F802B080BDE1
:101B600070B592B015460C468646DDF864C0189AEA
:101B70001799169811951094CDF83CE0CDF824C033
:101B800008920791069005930AA8049005A91222CD
:101B9000FEF76AFB002002900FA9019100F042FBC2
:101BA0000298049900F03EFB46F20040C4F20000A7
:101BB000009000F039F800980199029A8DF84020C1
:101BC0008DF841208DF84220012303938DF8433096
:101BD0008DF844208DF845208DF83C208DF83D206F
:101BE00003228DF83E2002228DF83F201522ADF809
:101BF000462000F0E1F8029A03990498ADF83220EB
:101C0000ADF83420ADF83610ADF82820ADF82A2014
:101C1000ADF82C20ADF82E20ADF830208DF838101E
:101C200000F022F812B070BD80B584B00390039824
:101C300046F20041C4F20001884209D1FFE740F6B4
:101C40001900029002F0D6FD029802F0BFFD08E0F4
:101C500040F61A00019002F0CDFD019802F0B6FDA9
:101C6000FFE704B080BD000082B00190002000902A
:101C70000198418901208840009046F20061C4F239
:101C80000001086840F001000860009A46F21C61FB
:101C9000C4F200010868904308600198C08908BB3D
:101CA000FFE7009A46F20C61C4F200010868904315
:101CB00008600199CA88488840EA02404A8946F289
:101CC0004061C4F2000141F8320001998A88088815
:101CD00040EA02404A8946F24461C4F2000141F8F8
:101CE0003200FFE70198C089012821D1FFE7009A5F
:101CF00046F20C61C4F200010868104308600199C3
:101D00000A88488840EA02404A8946F24061C4F2A3
:101D1000000141F8320001998A88C88840EA0240EF
:101D20004A8946F24461C4F2000141F83200FFE7FB
:101D30000198808948B9FFE7009A46F20461C4F22D
:101D4000000108689043086008E0009A46F20461C8
:101D5000C4F20001086810430860FFE70198008999
:101D600048B9FFE7009A46F21461C4F2000108681E
:101D70009043086008E0009A46F21461C4F2000142
:101D8000086810430860FFE70198007C012809D12A
:101D9000FFE7009A46F21C61C4F200010868104394
:101DA0000860FFE746F20061C4F20001086820F015
:101DB0000100086002B0704780B586B005900491BC
:101DC0004FF6FF70039000208DF80B00059908680E
:101DD00020F0020008600599086840F001000860E2
:101DE000FFE7059841680020C907019031B9FFE776
:101DF0000398002818BF01200190FFE70198C00751
:101E000020B1FFE7039801380390EAE7059840689E
:101E1000C00720B9FFE700208DF80B00A5E004996A
:101E200091F800C091F801E08B78CA784FF04070CB
:101E300000EA0E6040EA8C7003F00F0340EA0340B2
:101E400002F0070240EA0250498901396FF39F21ED
:101E500008440599C86104980079012806D1FFE774
:101E60000599086840F08000086005E00599086859
:101E700020F080000860FFE704984079012806D12F
:101E8000FFE70599086840F04000086005E0059903
:101E9000086820F040000860FFE704988079012876
:101EA00006D1FFE70599086840F02000086005E0CA
:101EB0000599086820F020000860FFE70498C079C1
:101EC00030B9FFE70599086840F01000086005E0A8
:101ED0000599086820F010000860FFE70498007A70
:101EE00030B9FFE70599086840F00800086005E090
:101EF0000599086820F008000860FFE70498407A18
:101F0000012806D1FFE70599086840F00400086041
:101F100005E00599086820F004000860FFE70599CE
:101F2000086820F0010008604FF6FF700390FFE79B
:101F3000059841680020C907009031B1FFE7039878
:101F4000002818BF01200090FFE70098C00720B1CB
:101F5000FFE7039801380390EAE7039820B1FFE711
:101F600001208DF80B00FFE7FFE79DF80B0006B09E
:101F700080BD000082B001900091009A01994869EB
:101F80001043486102B0704783B002908DF807108B
:101F9000009202989DF8071000EB0110D0F8B001F4
:101FA00000F00400009908720098007A58B9FFE721
:101FB00002989DF8071000EB0110D0F8B001400D19
:101FC000009908600AE002989DF8071000EB0110E4
:101FD000D0F8B001C00800994860FFE702989DF86A
:101FE000071000EB0110D0F8B00100F002000099DA
:101FF000487202989DF8071000EB0110D0F8B40168
:10200000000A0099C87402989DF8071000EB0110AF
:10201000D0F8B40100F00F000099887202989DF882
:10202000071000EB0110D0F8B8010099C8720298AF
:102030009DF8071000EB0110D0F8B801000A0099D4
:10204000087302989DF8071000EB0110D0F8B80152
:10205000000C0099487302989DF8071000EB0110DE
:10206000D0F8B801000E0099887302989DF8071007
:1020700000EB0110D0F8BC010099C87302989DF8DC
:10208000071000EB0110D0F8BC01000A0099087499
:1020900002989DF8071000EB0110D0F8BC01000C6D
:1020A0000099487402989DF8071000EB0110D0F8D1
:1020B000BC01000E009988749DF8070030B9FFE755
:1020C0000299C86840F02000C86005E002990869DC
:1020D00040F020000861FFE703B0704784B0029031
:1020E000019100208DF803000298806840010028CB
:1020F00004D5FFE700208DF8030019E002988068FE
:102100000001002804D5FFE701208DF803000EE050
:1021100002988068C000002804D5FFE702208DF8EF
:10212000030003E003208DF80300FFE7FFE7FFE76C
:102130009DF80300032804D1FFE703208DF80F006A
:102140006CE002989DF8031000EB0111D1F88001BA
:1021500000F00100C1F880010198007A80B9FFE722
:1021600001980168407A40EA415202989DF80310B4
:1021700000EB0111D1F880011043C1F8800112E099
:1021800001994A68087A40EAC200497A40EA0102A5
:1021900002989DF8031000EB0111D1F88001104363
:1021A000C1F88001FFE702989DF8031000EB0111D0
:1021B000D1F8840120F00F00C1F884010198827ADF
:1021C00002989DF8031000EB0111D1F8840110432F
:1021D000C1F884010198D0F80B0002999DF8032002
:1021E00001EB0211C1F888010198D0F80F000299A3
:1021F0009DF8032001EB0211C1F88C0102989DF8B3
:10220000031000EB0111D1F8800140F00100C1F88A
:1022100080019DF803008DF80F00FFE79DF80F0087
:1022200004B0704785B08DF8130003919DF813003A
:1022300001460191032800F27D800199DFE801F059
:10224000021E3456039900204871039A0121D1716E
:10225000039A9071039B40F2FF325A81039A1172E4
:1022600003994870039A022191700399C8700399E9
:102270000871039948720399087062E0039901207C
:10228000C88103990020009008740399088103997C
:10229000088003994880039988800399C88003992E
:1022A0008881039948814CE000208DF80B00FFE7FE
:1022B0009DF80B0007280DD8FFE703989DF80B1039
:1022C00001440020C872FFE79DF80B0001308DF833
:1022D0000B00EDE703990020887203994860039989
:1022E000087203994872039908602AE000208DF86B
:1022F0000B00FFE79DF80B0007280DD8FFE70398B8
:102300009DF80B1001440020C872FFE79DF80B00F8
:1023100001308DF80B00EDE70399002088720399D6
:102320004860039908720399C87403994872039925
:10233000086006E0FFE7FFE701200028FBD1FFE788
:10234000FFE705B07047000080B582B001900091B2
:102350009DF8041041F20040C4F2010002F000FCBC
:10236000FFE741F20040C4F20100072102F0AEFC99
:1023700008B9FFE7F5E7019802B080BD86B0059087
:10238000049103920598006A01900598406A0090B4
:102390000020ADF80A00FFE7BDF80A00072821D8A1
:1023A000FFE7BDF80A100398C840C00798B1FFE7DF
:1023B000BDF80A0081000F2000FA01F1019888435E
:1023C00001900498BDF80A10890000FA01F1019803
:1023D00008430190FFE7FFE7BDF80A000130ADF8C0
:1023E0000A00D9E70820ADF80A00FFE7BDF80A00A7
:1023F0000F2825D8FFE7BDF80A100398C840C0078A
:10240000B8B1FFE7BDF80A006FF01F0101EB8002D1
:102410000F2000FA02F20098904300900498BDF853
:102420000A2001EB820100FA01F1009808430090B4
:10243000FFE7FFE7BDF80A000130ADF80A00D5E775
:1024400001980599086200980599486206B070479E
:1024500082B00190009100980199C86202B0704763
:1024600087B0069005910492039306980068019046
:102470000698C06800900020ADF80A00FFE7BDF89C
:102480000A000F2832D8FFE7BDF80A100398C840A9
:10249000C00720B3FFE7BDF80A004100032000FA9F
:1024A00001F20199914301910599BDF80A2052006A
:1024B00001FA02F2019911430191BDF80A10490095
:1024C00000FA01F10098884300900498BDF80A10C2
:1024D000490000FA01F1009808430090FFE7FFE788
:1024E000BDF80A000130ADF80A00C8E70198069966
:1024F000086000980699C86007B0704786B00590DC
:102500008DF81310039202939DF81300012806D151
:10251000FFE7029A059948681043486005E0029A6F
:102520000599486890434860FFE7059880680090E7
:102530000020ADF80600FFE7BDF806000F2821D8FF
:10254000FFE7BDF806100298C840C00798B1FFE742
:10255000BDF806004100032000FA01F1009888430D
:1025600000900398BDF80610490000FA01F10098A8
:1025700008430090FFE7FFE7BDF806000130ADF823
:102580000600D9E700980599886006B070470000FA
:1025900080B582B001900020009040F21400C2F299
:1025A000000000880004002812D5FFE740F2140064
:1025B000C2F2000002886FF3DF3240F29C50C2F298
:1025C0000000002181540199FDF772FE0090FFE7A1
:1025D000009802B080BD000080B586B005900491DF
:1025E000ADF80E2000208DF80D0040F21401C2F26B
:1025F000000108800A886FF3DF3240F29C51C2F27A
:10260000000188540598FF2801D8FFE707E00599E5
:1026100047F28240C0F6000002F0AEF9FFE700206A
:102620008DF80C0001208DF80B00FF208DF80A00BA
:1026300041F20000C4F20100019002F0CDFB0198CC
:10264000BDF80E1001EBC101C90102F0D1FBFFE79B
:1026500041F20000C4F20100052102F037FB08B18D
:10266000FFE7F5E7FFE741F20000C4F2010042F2A4
:102670000B2102F02BFB08B9FFE7F4E740F214004E
:10268000C2F200000090038840F29C52C2F20002A5
:102690000021D154018847F21F40C0F6000003F02A
:1026A000E5FE0099088840F40040088041F20000EF
:1026B000C4F2010042F20B2102F0F6FA0498C0B114
:1026C000FFE7BDF80E00A0B1FFE70498FFF760FF39
:1026D00050B1FFE740F21401C2F20001002008806F
:1026E00001208DF80D0003E002208DF80D00FFE7BA
:1026F000FFE79DF80D0006B080BD000080B582B0F8
:10270000002000900190FEF7C5FCFEF7A3FBFEF74A
:1027100045FBFEF7F7FBFEF7C9FA00F0F7F8009A61
:1027200040F65130C0F60000114600F047F900F0C5
:1027300017F9FFE7FEE7000080B584B014200221FE
:1027400003910022009200F025F800992520012233
:10275000019200F01FF80099019A472000F01AF842
:1027600041F20000C4F2010040F20531029102F092
:10277000CBFA029941F20040C4F2010002F0C4FA1F
:10278000039946F20040C4F20000FFF7F3FB04B0E7
:1027900080BD000080B584B08DF80F008DF80E105C
:1027A0008DF80D2000200290019000904EF60C5004
:1027B000CEF20000006800F4E060B0F5E06F05D1F3
:1027C000FFE700200190042000904AE04EF60C50F4
:1027D000CEF20000006800F4E060B0F5C06F05D1F3
:1027E000FFE7012001900320009039E04EF60C50E5
:1027F000CEF20000006800F4E060B0F5A06F04D1F4
:10280000FFE702200190009029E04EF60C50CEF236
:102810000000006800F4E060B0F5806F05D1FFE7CC
:10282000032001900120009018E04EF60C50CEF2EB
:102830000000006800F4E060B0F5407F05D1FFE7DC
:10284000042001900020009007E04FF4A06000F009
:1028500037F8022001900090FFE7FFE7FFE7FFE76E
:10286000FFE79DF80E000199C1F104018840029034
:102870009DF80D000099C1F104020F21D1400140E3
:1028800002980843029002980001029002989DF875
:102890000F104EF20042CEF2000288549DF80F2035
:1028A00002F01F01012088404EF20011CEF200011B
:1028B00041EAD20121F00301086004B080BD0000AC
:1028C00081B0009000980021C0F2FA5108434EF602
:1028D0000C51CEF20001086001B0704780B582B0A3
:1028E0000190FEF7BBF920B1FFE76FF00500009003
:1028F00009E000200090019820B1FFE7019802F064
:1029000039FCFFE7FFE7009802B080BD80B582B0D8
:10291000FEF7A4F920B1FFE76FF0050001901BE07E
:1029200003F028F900900098012810D1FFE740F249
:102930001000C2F20000006848B9FFE740F2100141
:10294000C2F20001012008600020019003E04FF076
:10295000FF300190FFE7FFE7019802B080BD000063
:1029600080B582B0FEF77AF920B1FFE76FF005007D
:10297000019020E003F0FEF800900098012815D1A6
:10298000FFE740F21000C2F20000006801280DD1FC
:10299000FFE7FEF767FB40F21001C2F200010220E0
:1029A000086002F06BFC0020019003E04FF0FF3064
:1029B0000190FFE7FFE7019802B080BDB0B58CB091
:1029C0000A900991089200200590FEF747F9002827
:1029D00040F09980FFE70A98002800F09480FFE714
:1029E0008020069018200490002007904FF0FF30C0
:1029F0000390089800284DD0FFE70898006820B1A0
:102A0000FFE7089800680790FFE70898806920B101
:102A1000FFE7089880690490FFE7049848B1FFE752
:102A20000498382805D8FFE708980079C00718B13E
:102A3000FFE700200B9069E00898406928B1FFE7A4
:102A40000898406980080690FFE70898806880B180
:102A5000FFE70898C0685C280BD3FFE70898006977
:102A600038B1FFE70898406918B1FFE701200390EB
:102A70000FE00898806858B9FFE70898C06838B92F
:102A8000FFE70898006918B9FFE700200390FFE707
:102A9000FFE702E000200390FFE70398012817D129
:102AA000FFE70A980799069A099BDDF810C0DDF840
:102AB00020E0DEF80850DEF81040EE46CEF8085070
:102AC000CEF80440CEF800C003F016F8059019E0E7
:102AD0000398B0B9FFE70A980799BDF81820099B39
:102AE000DDF810C0EE4605ACCEF80440CEF800C0CC
:102AF00002F0AEFF012803D0FFE700200590FFE7BA
:102B0000FFE7FFE7FFE705980B90FFE70B980CB096
:102B1000B0BD000080B58CB00B908DF82B100992E1
:102B2000089300200690FEF799F8002840F0AB804B
:102B3000FFE70B98002800F0A680FFE70020059033
:102B40000290089878B1FFE70898806858B1FFE7CD
:102B50000898C068342805D3FFE7089880682C30AF
:102B60000590FFE7FFE7059858B9FFE7082001F057
:102B700063FC0590059818B1FFE701200290FFE77C
:102B8000FFE7059800287DD0FFE70B9805990860BE
:102B90000998059948609DF82B0018B9FFE70020B7
:102BA000049002E001200490FFE74FF0FF30039013
:102BB00000200790089808B3FFE70898006820B144
:102BC000FFE7089800680790FFE70898806840B121
:102BD000FFE70898C0682C2803D3FFE70120039083
:102BE0000BE00898806838B9FFE70898C06818B902
:102BF000FFE700200390FFE7FFE702E000200390DB
:102C0000FFE705980299084305900398012813D11E
:102C1000FFE70798049A059B08998968EC46CCF869
:102C2000041041F20931C0F60001CCF80010012176
:102C300003F032FB069012E0039878B9FFE707989B
:102C4000049A059B41F20931C0F60001EC46CCF82C
:102C50000010012103F0FAFA0690FFE7FFE706985B
:102C600078B9FFE7059860B1FFE70298012808D11D
:102C7000FFE7059820F001000590059802F0EAF9B9
:102C8000FFE7FFE7FFE706980CB080BD80B584B092
:102C9000039003980290FDF7E1FF20B1FFE76FF08A
:102CA0000500019024E0029820B9FFE76FF00300CF
:102CB00001901CE0029803F09BFB20B9FFE76FF046
:102CC0000200019012E00298694600230B60032184
:102CD0001A4603F043FB012803D1FFE700200190CF
:102CE00003E04FF0FF300190FFE7FFE7FFE7FFE76A
:102CF000019804B080BD000080B586B005900491B5
:102D000043F29020C2F200000068029040F21010DE
:102D1000C2F200000068043002F0B4F808B9FFE71E
:102D200000E0FFE70598013018BBFFE7049800B307
:102D3000FFE743F26821C2F2000148680190019A5E
:102D400040F21010C2F2000003689A60019A926883
:102D50000368DA6002680432019B9B685A6002686B
:102D60000432019B9A600068416108680130086084
:102D70003DE00298059908440390039840F2101131
:102D8000C2F20001096848600398029988420ED295
:102D9000FFE740F22010C2F20000006840F210117C
:102DA000C2F200010968043102F0E8F81EE040F2C6
:102DB0001810C2F20000006840F21011C2F20001C7
:102DC0000968043102F0DAF8039843F23421C2F2C0
:102DD00000010968884207D2FFE7039843F23421D3
:102DE000C2F20001086000E0FFE7FFE7FFE706B07E
:102DF00080BD000080B582B0019002F0FFF842F67D
:102E0000CC51C2F2000108680130086040F2101095
:102E1000C2F20000006898B9FFE7019840F2101173
:102E2000C2F20001086042F6CC50C2F20000006815
:102E3000012803D1FFE700F0F7FA00E0FFE71CE00C
:102E400043F25C20C2F200000068A0B9FFE740F244
:102E50001010C2F200000068C06A0199C96A884275
:102E600007D8FFE7019840F21011C2F20001086094
:102E700000E0FFE700E0FFE7FFE742F6D850C2F2CC
:102E800000000168013101600068019948640198FF
:102E9000C06A42F6DC51C2F200010968884208D9D2
:102EA000FFE70198C06A42F6DC51C2F200010860F7
:102EB000FFE70198C06A00EB800040F22811C2F2DF
:102EC000000101EB8000406800900098019A90603A
:102ED00000988068019AD06001980430009A926846
:102EE000506001980430009A9060019AD06A00EB1B
:102EF000800001EB800050610198C06A00EB800205
:102F000051F82200013041F8220002F08FF843F21C
:102F10005C20C2F200000068C8B1FFE740F2101068
:102F2000C2F200000068C06A0199C96A88420CD2E6
:102F3000FFE74EF60451CEF200014FF080500860DA
:102F4000BFF34F8FBFF36F8F00E0FFE700E0FFE7B5
:102F500002B080BD80B584B002F050F843F29420F6
:102F6000C2F20000006878BBFFE743F2D810C2F25B
:102F70000000029001F0E2FF43F2EC10C2F2000008
:102F8000039001F0DBFF0299039840F21412C2F2A1
:102F90000002116040F22411C2F20001086069468B
:102FA0000020086040F26C02C2F2000240F2BC0352
:102FB000C2F200030520102102F094FA43F294219A
:102FC000C2F20001086000E0FFE702F02FF804B051
:102FD00080BD000080B582B0FFE742F6D050C2F25B
:102FE0000000006808B3FFE702F008F843F27C2015
:102FF000C2F20000C068C06801900198043001F07E
:1030000041FF42F6CC51C2F2000108680138086065
:1030100042F6D051C2F2000108680138086002F09F
:1030200005F8019800F08CF8D7E702B080BD0000E9
:1030300080B582B0019000910198006CB8B1FFE7B3
:103040000199C8680A6C1044C86001988168C0681A
:10305000884204D3FFE701990868C86000E0FFE7F1
:103060000098019AD168126CFDF7FEF8FFE702B0F4
:1030700080BD000080B586B00590049103920020C9
:1030800002900598806B01900598006C78B9FFE775
:103090000598006848B9FFE70598806802F09EFE31
:1030A000029005990020886000E0FFE741E0039866
:1030B000B8B9FFE7059A04995068126CFDF7D4F887
:1030C000059948680A6C1044486005994868896801
:1030D000884204D3FFE705990868486000E0FFE7ED
:1030E00026E0059A0499D068126CFDF7BDF80599A1
:1030F000C8680A6C801AC86005980168C068884270
:1031000006D2FFE7059988680A6C801AC86000E05B
:10311000FFE70398022809D1FFE7019820B1FFE7F4
:1031200001980138019000E0FFE700E0FFE7FFE7CA
:10313000FFE70198013005998863029806B080BDC9
:1031400080B582B00190019890F8590040B9FFE72E
:103150000198006B01F07EFF019801F07BFF0BE00E
:10316000019890F85900012804D1FFE7019801F077
:1031700071FF00E0FFE7FFE702B080BD82B0019081
:1031800040F21410C2F2000000680068B0FA80F04B
:103190004009019908600198006848B9FFE740F2CA
:1031A0001410C2F200000068C0680068009002E0DD
:1031B00000200090FFE7009802B0704784B04FF401
:1031C0000050009040F6C850C2F2000001909DF8F7
:1031D0000400400788B1FFE701980730019001988B
:1031E00020F007000190019A40F6C851C2F2000198
:1031F0000098891A08440090FFE70198029002990C
:1032000043F26020C2F20000016000214160029898
:10321000009A10440190019808380190019820F01C
:1032200007000190019A40F21C10C2F200000260F7
:103230000268516002681160029903910199039A32
:10324000891A51600068039908600398406843F246
:103250003021C2F2000108600398406843F228213F
:10326000C2F20001086004B07047000080B582B06F
:103270000190FFE7FFF7AEFE40F22810C2F2000017
:10328000006802280CD3FFE74EF60451CEF200018D
:103290004FF080500860BFF34F8FBFF36F8F00E097
:1032A000FFE7E7E780B584B0DDF818C0039002912E
:1032B00001928DF80330029818B9FFE70698006074
:1032C00003E0019806990860FFE703980699C86330
:1032D0000298069908640698012102F039F99DF8D0
:1032E0000300069981F84C0004B080BD80B586B01B
:1032F000DDF82CC0DDF828C0DDF824C0DDF820C0E2
:1033000005900491039202930A98006B0399890037
:10331000A522FCF7BBFF0A98006B039900EB810024
:1033200004380190019820F0070001900498F8B14A
:10333000FFE700200090FFE700980F2813D8FFE771
:103340000498009A805C0A99114481F8340004982A
:103350000099405C08B9FFE705E0FFE7FFE7009848
:1033600001300090E8E70A99002081F8430000E06E
:10337000FFE70898382803D3FFE73720089000E0DC
:10338000FFE708980A99C86208980A99C8640A98D9
:10339000043001F0EBFD0A98183001F0E7FD0A98BF
:1033A00000610898C0F138000A9988610A98406263
:1033B00001980599029A01F013F90A990860099891
:1033C00020B1FFE70A980999086000E0FFE706B01E
:1033D00080BD000080B584B0DDF81CC0DDF818C0E9
:1033E0000390029101920093FFF7B4FD03980799AF
:1033F000086002980799886100980799C861069843
:10340000079908620798043001F0B0FD019840B1B7
:10341000FFE7079991F8280040F0040081F82800A0
:10342000FFE704B080BD000080B584B000200390A9
:10343000FFE70398372810D8FFE7039800EB8001D7
:1034400040F22810C2F2000000EB810001F076FD8E
:10345000FFE7039801300390EBE743F20020C2F24C
:103460000000019001F06AFD43F21420C2F2000056
:10347000029001F063FD43F24820C2F2000001F027
:103480005DFD43F27C20C2F2000001F057FD43F2E3
:103490006820C2F2000001F051FD0199029840F24B
:1034A0001812C2F20002116040F22011C2F20001B3
:1034B000086004B080BD000083B0029043F2602039
:1034C000C2F200000190FFE701980068029988426B
:1034D00005D2FFE7FFE7019800680190F4E7019843
:1034E000009000980199496808440299884209D1DE
:1034F000FFE70298426801994868104448600198C3
:10350000029000E0FFE70298009000980299496855
:10351000084401990968884220D1FFE701980068B2
:1035200040F21C11C2F20001096888420DD0FFE789
:103530000198006842680299486810444860019800
:10354000006800680299086007E040F21C10C2F2AF
:103550000000006802990860FFE704E00198006835
:1035600002990860FFE701980299884204D0FFE7BA
:1035700002980199086000E0FFE703B0704700007F
:1035800080B586B0059004910392029300200190CB
:103590000498059948600598006104980399884249
:1035A00016D8FFE703980299401A0599896988425D
:1035B00003D3FFE70120019009E040F22410C2F29A
:1035C000000000680599043101F0D8FCFFE717E01E
:1035D00003980299884208D2FFE70498029988422A
:1035E00003D3FFE70120019009E040F21410C2F27A
:1035F000000000680599043101F0C0FCFFE7FFE717
:10360000019806B080BD000080B582B0019001F045
:10361000F5FC0198806B18B9FFE70120009002E0EB
:1036200000200090FFE701F001FD009802B080BD8E
:1036300080B582B0019001F0E1FC0198806B0199A6
:10364000C96B884203D1FFE70120009002E000200F
:103650000090FFE701F0EAFC009802B080BD000096
:1036600008480068006880F308884FF0000080F385
:10367000148862B661B6BFF34F8FBFF36F8F00DF60
:1036800000BF00BF08ED00E080B584B00390029158
:1036900040F21410C2F200000068C068C0680190D7
:1036A0000198043001F0EEFB019890F828004007E3
:1036B000002806D5FFE701980399029A00F0FEF86A
:1036C00007E0019991F8280000F0FE0081F8280039
:1036D000FFE70198016A884704B080BD80B58AB0D1
:1036E000FFE743F29420C2F20000006806A900221E
:1036F00002F0B6F8002800F09180FFE70698B0F1DC
:10370000FF3F09DCFFE706A80430029002990A682F
:1037100048688968904700E0FFE70698002800F1B4
:103720007C80FFE7089805900598406928B1FFE77D
:103730000598043001F0A6FB00E0FFE704A800F0C4
:10374000F5F803900698013801460191082862D8DF
:103750000199DFE801F00505323A4C0505323A00DF
:10376000059991F8280040F0010081F8280005989B
:10377000079B81691944039AFFF702FFD8B1FFE75D
:10378000059890F828004007002808D5FFE705981D
:10379000079982691144039A00F090F807E00599AF
:1037A00091F8280000F0FE0081F82800FFE7059856
:1037B000016A884700E0FFE72EE0059991F82800AC
:1037C00000F0FE0081F8280026E0059991F8280015
:1037D00040F0010081F82800079805998861059854
:1037E000039B816919441A46FFF7CAFE14E0059845
:1037F00090F828008007002804D4FFE7059801F01E
:1038000029FC07E0059991F8280000F0FE0081F8F6
:103810002800FFE700E0FFE7FFE762E70AB080BDAE
:1038200080B584B00390029101F08AFD684600F0F3
:103830007DF801900098D8BBFFE7029860B9FFE7D8
:1038400003980199884207D8FFE702F0F9FB039833
:103850000199FFF719FF2AE0029858B1FFE740F2FB
:103860002410C2F2000000680068B0FA80F040093D
:103870000290FFE743F29420C2F20000006803992F
:10388000019A891A029A01F043FC02F0D9FB60B94F
:10389000FFE74EF60451CEF200014FF08050086071
:1038A000BFF34F8FBFF36F8F00E0FFE7FFE702E04A
:1038B00002F0C6FBFFE704B080BD000080B584B015
:1038C000039002910192FFE70398029B81691944DA
:1038D000019AFFF755FE48B1FFE703988169029806
:1038E000084402900398016A8847EDE704B080BD60
:1038F00040F21810C2F200000068006840B9FFE70B
:1039000043F23421C2F200014FF0FF3008600CE0B6
:1039100040F21810C2F200000068C068006843F26C
:103920003421C2F200010860FFE7704780B582B021
:10393000019002F03BF90090009840F20C11C2F2A5
:1039400000010968884206D2FFE700F011F80199EA
:103950000120086003E0019900200860FFE700985B
:1039600040F20C11C2F200010860009802B080BD64
:1039700080B582B0FFE740F21410C2F20000006888
:10398000006870B1FFE740F21410C2F20000006856
:10399000C0680068019001984FF0FF31FFF774FE96
:1039A000E9E740F21412C2F200021068009040F2FF
:1039B0002411C2F20001086810600098086002B08B
:1039C00080BD000082B0002000904FF0100080F316
:1039D0001188BFF36F8FBFF34F8F0190FFE70098FF
:1039E00008B9FFE7FBE702B07047000080B584B07C
:1039F0000390FFE701A8FFF7C1FB0290029801992D
:103A0000FFF70EFFFFF76AFEF4E7000080B582B013
:103A1000019001F0F3FA019890F845008DF8030049
:103A2000FFE79DF90300012816DBFFE70198406AD4
:103A300058B1FFE70198243002F044FA18B1FFE7CB
:103A400001F0D0FB00E0FFE700E005E09DF8030097
:103A500001388DF80300E4E70199FF2081F8450063
:103A600001F0E4FA01F0CAFA019890F844008DF8E8
:103A70000200FFE79DF90200012816DBFFE701982D
:103A8000006980B1FFE70198103002F01BFA18B10D
:103A9000FFE701F0A7FB00E0FFE79DF80200013817
:103AA0008DF8020000E000E0E4E70199FF2081F8D2
:103AB000440001F0BBFA02B080BD000083B080B5C5
:103AC000ADF2144DCDF82434CDF82024CDF81C14DB
:103AD000CDF810040020ADF80E000DF21C4002904D
:103AE000DDF81014029A04A8009002F0E3FC00989C
:103AF000FCF7FAFB0099ADF80E0047F23410C0F65F
:103B0000000002F0B3FCBDF80E2047F2F730C0F61B
:103B1000000047F23021C0F6000100F02DFF6420C4
:103B20000190FEF7DBFE009802F07AFC0198FEF7A8
:103B3000D5FE0DF2144DBDE8804003B07047000083
:103B40002DE9F04FADF51D7D9C90FFE747F2C430A5
:103B5000C0F6000000216422FEF73EFD0A20FEF7B9
:103B6000BDFEFFE740F21400C2F20000008800042E
:103B7000002801D4FFE7F5E747F27630C0F60000F1
:103B8000FEF706FD9B909B9806309B909B989A9021
:103B9000FFE79A9800782C2804D0FFE79A98013024
:103BA0009A90F6E79A9900203F9008709B98FCF74E
:103BB000A2FB3F998DF8670247F2B830C0F60000CB
:103BC0006422FEF709FD0A20FEF788FEFFE740F2B7
:103BD0001400C2F2000000880004002801D4FFE7AE
:103BE000F5E747F26B30C0F60000FEF7D1FC9B9082
:103BF0009B980B309B909B9947F24A10C0F60000AF
:103C000002F034FC9B983E90FCF76EFB3E99024616
:103C10000DF22720FCF728FB00208DF82602FFE795
:103C20009DF826023F2816DCFFE79DF826120DF2CC
:103C30002720405C0D2807D1FFE79DF826220DF2D2
:103C400027210020885406E0FFE79DF82602013076
:103C50008DF82602E4E700213D91CDF81F128791EF
:103C6000869142F63060C0F2300085904E228DF889
:103C70001322CDF80F1283918291819045228DF805
:103C80000322ADF8001243F230037F934FF030323D
:103C90007E92ADF8F4117C937B92ADF8E8117991A6
:103CA0007890ADF8DC1176917590ADF8D0117391E4
:103CB00072900DF22720FCF717FB0B2873D3FFE758
:103CC0000DF227203B902C213C91FCF703FB3B9904
:103CD00071907198421A85A8FCF7C6FA3C997198C0
:103CE00001307190719800788DF81302719802304C
:103CF00071907198FCF7EEFA709071997098421A71
:103D000081A8FCF7B1FA3C997098013070907098D6
:103D100000788DF803027098023070907098FCF76C
:103D2000D9FA6F9070996F98421A7EA8FCF79CFAA6
:103D30003C996F9801306F906F98FCF7CBFA6E90BA
:103D40006F996E98421A7BA8FCF78EFA3C996E9890
:103D500001306E906E98FCF7BDFA6D906E996D987B
:103D6000421A78A8FCF780FA3C996D9801306D9062
:103D70006D98FCF7AFFA6C906D996C98421A75A823
:103D8000FCF772FA6C9801306C906C98FCF7ACFA06
:103D900001466C9808446B906C996B98421A72A813
:103DA000FCF762FAFFE79DF813229DF803026946CB
:103DB00072AB4B6175AB0B6178ABCB607BAB8B604F
:103DC0007EAB4B60086047F26D10C0F6000085A91D
:103DD00081AB02F04BFB47F27E30C0F600000021C1
:103DE0006422FEF7F9FB8DF8AB01FFE740F2140007
:103DF000C2F2000000880004002801D4FFE7F5E7C4
:103E000047F26430C0F60000FEF7C2FB9B909B981F
:103E100008309B909B9947F25B10C0F6000002F0BF
:103E200025FB9B983A90FCF75FFA3A9902460DF20F
:103E30006B10FCF719FA00208DF86A01FFE79DF876
:103E40006A013F2818DCFFE79DF86A110DF26B103C
:103E5000405C0D2809D1FFE79DF86A010DF26B1156
:103E60000144002001F8010C06E0FFE79DF86A011B
:103E700001308DF86A01E2E7002059909DF86B113E
:103E80009DF86C0101EB810100EB4100A0F5D670BB
:103E900053909DF86E119DF86F0101EB810100EBCD
:103EA0004100A0F2112052909DF871119DF872010D
:103EB00001EB810100EB4100A0F5047051909DF8E9
:103EC00074119DF8750101EB810100EB4100A0F533
:103ED000047050909DF877119DF8780101EB8101F5
:103EE00000EB4100A0F504704F909DF87A119DF809
:103EF0007B0101EB810100EB4100A0F504704E90C5
:103F00004EA8FCF75DF9A0F5E1405990599947F2A8
:103F1000B600C0F6000002F0A9FA47F27641C0F6FA
:103F2000000140F69C12C2F200020DF5837002F00F
:103F3000ADFA47F21330C0F6000047F27C31C0F60C
:103F400000016422FEF748FB8DF805019DF805018C
:103F5000012807D1FFE746F6BC70C0F6000002F06A
:103F600085FAFFE747F2EB71C0F600010DF58370AB
:103F700064223992FEF730FB9DF867229DF8130208
:103F80009DF80332DDF864C16946C1F818C00DF52B
:103F9000E47CC1F814C00DF5EA7CC1F810C00DF541
:103FA000F07CC1F80CC08B6081AB4B60086047F2BD
:103FB0008470C0F6000040F69C11C2F2000185AB8F
:103FC000FFF77CFD399A47F28E20C0F6000047F2D9
:103FD000B531C0F60001FEF7FFFA8DF805019DF836
:103FE0000501012807D1FFE746F6FB60C0F6000097
:103FF00002F03CFAFFE74FF4FA60FEF76FFC40F284
:104000001800C2F200004079002840F07B81FFE7F1
:1040100047F24541C0F6000140F69C12C2F2000290
:104020000DF5837002F032FA47F24930C0F6000015
:1040300047F27C31C0F600016422FEF7CDFA8DF81C
:1040400004019DF80401012807D1FFE746F69970A5
:10405000C0F6000002F00AFAFFE747F2EB71C0F683
:1040600000010DF5837064223892FEF7B5FA40F234
:104070001801C2F2000136910A784B78887891F8DD
:1040800003C091F804E04C798D79CE790F7A91F8DC
:104090000980DDF8649169463791C1F82090C1F834
:1040A0001C808F614E610D61CC60C1F808E0C1F8E1
:1040B00004C0086047F21350C0F6000040F69C119F
:1040C000C2F20001FFF7FAFC389A47F28E20C0F6E0
:1040D000000047F2B531C0F60001FEF77DFA8DF819
:1040E00004019DF80401012807D1FFE746F6FB60B3
:1040F000C0F6000002F0BAF9FFE740F21800C2F281
:1041000000000079002800F0F780FFE74FF4FA6024
:10411000FEF7E4FB47F25541C0F6000140F69C1261
:10412000C2F200020DF5837002F0B0F947F2493097
:10413000C0F6000047F27C31C0F600016422FEF7B1
:104140004BFA8DF803019DF80301012807D1FFE721
:1041500046F69970C0F6000002F088F9FFE747F2D2
:10416000EB71C0F600010DF5837064223592FEF705
:1041700033FA40F21800C2F200002290027843782D
:104180008178339190F812C0B0F80AE08489C5892B
:10419000068A478BB0F81C80B0F81E90B0F820A0BB
:1041A000B0F822B090F82510329190F82610319195
:1041B00090F82710309190F828102F9190F829103E
:1041C0002E9190F82A102D9190F82B102C9190F8A8
:1041D0002C102B9190F82D102A9190F82E102991E7
:1041E00090F82F10289190F83010279190F8311006
:1041F000269190F8320025909DF8130224909DF8A6
:1042000003022390599968463490C0F8801072A92F
:10421000C16775A9816778A94167239834990867B0
:1042200081A8C86624993498816685A94166259835
:104230003499086626993498C16527983499886519
:104240002899349841652998349908652A993498B1
:10425000C1642B98349988642C99349841642D98C2
:10426000349908642E993498C1632F9834998863DF
:10427000309934984163319834990863329934986D
:10428000C16233983499C1F828B0C1F824A0C1F8AC
:104290002090C1F81C808F614E610D61CC60C1F827
:1042A00008E0C1F804C0086047F2B350C0F600004F
:1042B00040F69C11C2F20001FFF700FC359A47F26C
:1042C0008E20C0F6000047F2B531C0F60001FEF7BF
:1042D00083F98DF803019DF80301012807D1FFE759
:1042E00046F6FB60C0F6000002F0C0F8FFE74FF4AE
:1042F0007A70FEF7F3FA04E042F21070FEF7EEFA7D
:10430000FFE7FFE740F21800C2F20000C07CE8B906
:10431000FFE740F21800C2F20000807DB0B9FFE76D
:1043200040F21800C2F20000C07D78B9FFE740F209
:104330001800C2F20000007E40B9FFE740F218000A
:10434000C2F20000407E002870D0FFE74FF4FA6010
:10435000FEF7C4FA47F26541C0F6000140F69C1230
:10436000C2F200020DF5837002F090F847F2493076
:10437000C0F6000047F27C31C0F600016422FEF76F
:104380002BF98DF802019DF80201012807D1FFE702
:1043900046F69970C0F6000002F068F8FFE747F2B1
:1043A000EB71C0F600010DF5837064222192FEF7D7
:1043B00013F940F21801C2F200010A78CB7C887D23
:1043C00091F817C091F818E04C7E599D69460D612F
:1043D000CC60C1F808E0C1F804C0086047F2994019
:1043E000C0F6000040F69C11C2F20001FFF766FB28
:1043F000219A47F28E20C0F6000047F2B531C0F690
:104400000001FEF7E9F88DF802019DF8020101288C
:1044100007D1FFE746F6FB60C0F6000002F026F881
:10442000FFE74FF47A70FEF759FAFFE742F2107097
:10443000FEF754FAFFF78ABB80B588B007900020DA
:10444000039000F07DFF40F21C10C2F200000068F3
:1044500018B9FFE7FEF7B2FE00E0FFE70798A8B142
:10446000FFE7079800F00700C0F1100002900798DE
:104470000299C943884205D8FFE702990798084482
:10448000079002E000200790FFE700E0FFE79DF8BB
:104490001F000006002800F18C80FFE70798002825
:1044A00000F08580FFE7079843F22821C2F200015F
:1044B000096888427BD8FFE743F26020C2F200001F
:1044C000059000680690FFE706984168079A00206B
:1044D0009142019007D2FFE706980068002818BFB4
:1044E00001200190FFE70198C00730B1FFE706986F
:1044F0000590069800680690E6E7069840F21C11C1
:10450000C2F20001096888424FD0FFE705980068B1
:10451000083003900698006805990860069840687E
:104520000799401A112811D3FFE706980799084404
:104530000490069840680799401A049948600798C3
:10454000069948600498FEF7B7FF00E0FFE7069879
:10455000426843F22820C2F200000168891A016013
:10456000006843F23021C2F20001096888420BD290
:10457000FFE743F22820C2F20000006843F2302136
:10458000C2F20001086000E0FFE70699486840F0C9
:104590000040486006990020086043F23C21C2F2C6
:1045A000000108680130086000E0FFE700E0FFE775
:1045B00000E0FFE701F044FD039808B080BD000073
:1045C00080B584B003900398029000F017FD029824
:1045D000C069019000F02AFD019804B080BD000080
:1045E00083B00290019100920298043802900299DF
:1045F0004FF080700860029804380290019820F013
:10460000010002990860029804380290029943F66A
:10461000C510C0F600000860029814380290009897
:104620000299086002980438029002996FF0020023
:104630000860029820380290029803B0704700008A
:1046400098B08DF85F000020159040F20671C0F61A
:104650000811099140F20121C0F20341089107902D
:104660000690059104900391029043F60800C4F26D
:1046700002000068C0F3810016901698019040B1C6
:10468000FFE7019801280AD0FFE7019802280CD023
:104690003EE042F20040C0F2F40014903EE041F2ED
:1046A0000020C0F27A00149038E043F60400C4F20F
:1046B0000200016801F03F0110910168C1F3881107
:1046C0000F91016801F44032022101EBD2310D91CA
:1046D000006800F480000E900E98B0F5800F06D1AF
:1046E000FFE741F20020C0F27A000C9005E042F2B0
:1046F0000040C0F2F4000C90FFE70C981099B0FB5A
:10470000F1F00F9948430D99B0FBF1F0149005E0DA
:1047100042F20040C0F2F4001490FFE743F60800B4
:10472000C4F202000168C9B209090B910B9A06A9EB
:10473000895C0A9114990A9AD14013910168C1F3D6
:1047400082210B910B9A04A9895C0A9113990A9A08
:10475000D1401291006880B2400B0B900B9902A8D7
:10476000405C0A9013980A99C84011909DF85F0028
:1047700001460091032810D80099DFE801F00205F6
:10478000080B1498159009E01398159006E01298FC
:10479000159003E01198159000E0FFE7159818B008
:1047A0007047000081B0ADF80200BDF8020000F0D3
:1047B0001F02012101FA02F3810943F60002C4F24B
:1047C000020288581843885001B0704781B0ADF894
:1047D0000200BDF8020000F01F02012101FA02F3FD
:1047E000810943F60002C4F20202885898438850B7
:1047F00001B0704781B0ADF80200BDF8020000F0D2
:104800001F02012101FA02F3810943F60002C4F2FA
:10481000020288581843885001B0704782B00020C7
:10482000019043F60001C4F20201086840F48030B0
:104830000860FFE743F60000C4F2020001680020B0
:104840008903002900900AD4FFE70198411C0191D7
:104850004FF6FF71401A18BF01200090FFE7009843
:10486000C00708B1FFE7E5E743F60000C4F2020025
:1048700000688003002802D4FFE7FFE7FEE743F665
:104880004001C4F20201086840F08050086047F21D
:104890000001C4F20001086840F44040086043F69B
:1048A0000801C4F2020108680860086840F400408A
:1048B0000860086840F4A050086043F60401C4F2A0
:1048C000020145F20840C0F24070086043F6000162
:1048D000C4F20201086840F080700860FFE743F608
:1048E0000000C4F2020000688001002801D4FFE744
:1048F000F5E747F20001C4F20001086840F4803097
:104900000860FFE747F20400C4F200000068C0033B
:10491000002801D4FFE7F5E747F20001C4F20001E7
:10492000086840F400300860FFE747F20400C4F272
:10493000000000688003002801D4FFE7F5E743F694
:104940000801C4F20201086820F00300086008684A
:1049500040F002000860FFE743F60800C4F20200DE
:1049600000680007002801D4FFE7F5E702B07047B0
:1049700080B5FFF753FF80BD83B080B585B0099344
:1049800008920791049000200090ADF80E0007A84F
:1049900002900499029A40F6C810C2F200000190F9
:1049A00001F088FD0198FBF79FFC019A01460098F1
:1049B000ADF80E10BDF80E300D21D154BDF80E101B
:1049C0008B180A215970BDF80E1011448870BDF87B
:1049D0000E000330ADF80E00BDF80E1047F2FC30AB
:1049E000C0F6000001F042FD019801F019FD05B08C
:1049F000BDE8804003B0704780B588B0079006914D
:104A0000002005900490039002900798019044F2D2
:104A10000041C4F20001884242D0FFE7019844F609
:104A20000001C4F2000188423FD0FFE7019844F63C
:104A30000041C4F2000188423CD0FFE7019845F2F2
:104A40000001C4F20001884239D0FFE7019847F61F
:104A50000001C4F20001884236D0FFE7019847F612
:104A60000041C4F20001884233D0FFE7019841F2CF
:104A70000001C4F20101884208D0FFE7019841F229
:104A80000041C4F20101884205D027E00320FFF76E
:104A9000D7FD059023E00320FFF7D2FD05901EE02F
:104AA0000220FFF7CDFD059019E00220FFF7C8FDB9
:104AB000059014E00220FFF7C3FD05900FE00220EF
:104AC000FFF7BEFD05900AE00220FFF7B9FD059053
:104AD00005E00220FFF7B4FD059000E0FFE707982E
:104AE000C0680004002819D5FFE705984000069922
:104AF00000EB5100B0FBF1F0029002984FF6F0711C
:104B0000084004900298C0F342000390BDF81000E2
:104B1000BDF80C1008430799886017E005980699BE
:104B200000EB5100B0FBF1F0029002984FF6F071EB
:104B300008400490029800F00F000390BDF81000A8
:104B4000BDF80C10084307998860FFE708B080BDE6
:104B500081B00090009840686FF35F2001B070470B
:104B600082B00190009100986FF35F200199486036
:104B700002B0704780B58AB009900998089044F255
:104B80000041C4F20001884241D0FFE7089844F692
:104B90000001C4F20001884242D0FFE7089844F6C1
:104BA0000041C4F2000188424CD0FFE7089845F26A
:104BB0000001C4F2000188424DD0FFE7089847F693
:104BC0000001C4F2000188424ED0FFE7089847F682
:104BD0000041C4F2000188424FD0FFE7089841F23B
:104BE0000001C4F20101884208D0FFE7089841F2B1
:104BF0000041C4F2010188421BD047E040F6041096
:104C00000790FFF7F7FD0798FFF7E0FD3FE040F65C
:104C100011000690FFF7EEFD0698FFF7D7FD36E08E
:104C200040F612000590FFF7E5FD0598FFF7CEFD71
:104C30002DE040F605100490FFF7DCFD0498FFF727
:104C4000C5FD24E040F613000390FFF7D3FD039861
:104C5000FFF7BCFD1BE040F614000290FFF7CAFD11
:104C60000298FFF7B3FD12E040F61E000190FFF737
:104C7000C1FD0198FFF7AAFD09E040F61F00009072
:104C8000FFF7B8FD0098FFF7A1FD00E0FFE70AB0CD
:104C900080BD000081B000900099C86840F40050C9
:104CA000C86001B07047000082B00190ADF80210FA
:104CB000BDF8020000F01F02012101FA02F3019980
:104CC000820988589843885002B0704783B0019099
:104CD000ADF802100198BDF8021089094058BDF8DE
:104CE000021001F01F01C840C00720B1FFE70120FA
:104CF0008DF80B0003E000208DF80B00FFE79DF816
:104D00000B0003B07047000082B00190ADF80210B4
:104D1000BDF8020000F01F02012101FA02F301991F
:104D2000820988581843885002B0704785B00390B4
:104D300002910020019000900398BDF808108909A5
:104D40004058029901F01F02012101FA02F21040BD
:104D500001900398029A920D8058029AC2F304427D
:104D6000914008400090009838B1FFE7019820B1C9
:104D7000FFE701208DF8130003E000208DF81300F9
:104D8000FFE79DF8130005B07047000082B0019066
:104D900000910199C86820F4C060C860009A019928
:104DA000C8681043C86002B07047000083B002902A
:104DB0000191002000900298C0680090009820F0B7
:104DC000040000900199009808430090009802990F
:104DD000C86003B07047000081B000900099D1F81E
:104DE000800040F00100C1F8800001B07047000071
:104DF00082B0019000910199D1F8840000F07F40C9
:104E0000C1F88400009A0199D1F884001043C1F8D8
:104E1000840002B07047000082B0019000910199B7
:104E2000086920F440500861009A0199086910430C
:104E3000086102B07047000083B002900191002029
:104E400000900298C0680090009820F00800009040
:104E5000019900980843009000980299C86003B037
:104E60007047000082B0019000910199C86820F459
:104E70008050C860009A0199C8681043C86002B0A9
:104E80007047000082B0019001980069009001987D
:104E9000416880688860019948688968486000981E
:104EA00040680199884205D1FFE701988068009920
:104EB000486000E0FFE70199002008610099086858
:104EC000013808600098006802B0704742F6CC5084
:104ED000C2F200000068704783B002900191009216
:104EE000029942F6E070C2F200000860019942F6B1
:104EF000E050C2F20000086000998020086003B012
:104F00007047000083B0029001910092029943F231
:104F10007C10C2F200000860019943F23C00C2F22A
:104F20000000086000995020086003B0704700003E
:104F300082B00190009102B07047000081B00090F3
:104F4000009901F10800486000994FF0FF30886037
:104F5000009901F10800C860009901F1080008619A
:104F600000990020086001B07047000081B00090F7
:104F700000990020086101B07047000084B00390E0
:104F800002910298006800900098013020B9FFE774
:104F900003980069019010E0039808300190FFE742
:104FA0000198406800680099884205D8FFE7FFE74C
:104FB000019840680190F3E7FFE701984068029983
:104FC0004860029841688860019802998860029858
:104FD00001994860039802990861039908680130B3
:104FE000086004B070470000DFF80C00016841F46D
:104FF00070010160704700BF88ED00E081B04FF0A4
:10500000100080F31188BFF36F8FBFF34F8F0090B4
:1050100040F20C00C2F2000001680131016000683A
:10502000012801D1FFE7FFE701B0704781B040F2EE
:105030000C00C2F20000016801390160006830B95B
:10504000FFE700200090009880F31188FFE701B08F
:105050007047000080B584B00390039802900398D5
:1050600088B3FFE7029808380290029801900198EF
:10507000C1790020B0EBD11F23D0FFE70198006871
:10508000E8B9FFE70199486820F00040486000F067
:1050900057F90198426843F22821C2F200010868DA
:1050A000104408600198FEF707FA43F24021C2F26B
:1050B000000108680130086000F0C2FF00E0FFE76F
:1050C00000E0FFE7FFE704B080BD00004EF21001F2
:1050D000CEF20001002008604EF21802CEF200026B
:1050E000106040F20800C2F20000006844F6D3529B
:1050F000C1F26202A0FB02024FF0FF3000EB9210FF
:105100004EF21402CEF200021060072008607047D1
:1051100080B584B003900291019203980090FFF74C
:105120006DFF009890F94400013028B9FFE700991D
:10513000002081F84400FFE7009890F94500013015
:1051400028B9FFE70099002081F84500FFE7FFF745
:105150006DFF0098806B38B9FFE700982430029902
:10516000019A00F05BF800E0FFE70098FEF74EFCC4
:1051700004B080BD80B582B00190002000900198FD
:1051800050B1FFE700F0DCF801980021FDF7B4FD15
:1051900000F056FF009000E0FFE7009860B9FFE7DD
:1051A0004EF60451CEF200014FF080500860BFF37C
:1051B0004F8FBFF36F8F00E0FFE702B080BD0000AC
:1051C00081B0009043F23820C2F2000000680099DC
:1051D000086043F29020C2F2000000680099486025
:1051E00001B0704743F29C21C2F200010120086027
:1051F0007047000080B582B001900091019840F2A4
:105200001011C2F2000109681831FFF7B7FE0098CB
:105210000121FDF771FD02B080BD000080B584B0B2
:10522000039002910192039840680090009840F228
:105230001011C2F200010A68D061009880680A6803
:10524000106208681830009A926850600868183038
:10525000009A906003980968886203990868013091
:105260000860019820B1FFE74FF0FF300290FFE7A0
:1052700002980199FDF740FD04B080BD80B58AB069
:10528000002004900790069007A806A905AAFFF73A
:1052900023FE049B059A0699DDF81CC06846C0F8F9
:1052A00008C04160036043F26D20C0F6000047F281
:1052B000EC71C0F6000100F01FFC014643F22C2007
:1052C000C2F200000160006818B1FFE701200890F9
:1052D00002E000200890FFE70898012804D1FFE7CA
:1052E00001F000F8089000E0FFE7089801281FD1BE
:1052F000FFE74FF0100080F31188BFF36F8FBFF30B
:105300004F8F099043F23421C2F200014FF0FF3079
:10531000086043F25C21C2F200010120086043F200
:105320009021C2F200010020086000F093F800E034
:10533000FFE747F60C00C0F6000000680AB080BD29
:1053400042F6D451C2F2000108680130086070478B
:1053500080B584B042F6D450C2F20000006838B183
:10536000FFE743F29C21C2F20001012008606FE0D8
:1053700043F29C21C2F200010020086040F21010AC
:10538000C2F200000068006B03904FF0A53002905D
:1053900003980068B0F1A53F12D1FFE70398406879
:1053A000B0F1A53F0CD1FFE703988068B0F1A53FAD
:1053B00006D1FFE70398C068B0F1A53F0AD0FFE728
:1053C00040F21011C2F20001086809683431FFF799
:1053D000AFFDFFE742F6DC50C2F20000006801902A
:1053E000FFE7019800EB800140F22810C2F20000B4
:1053F00050F8210020B9FFE7019801380190F0E74B
:10540000019800EB800140F22810C2F2000000EB8E
:105410008100009000994868406848600099486899
:105420000831884205D1FFE7009948684068486024
:10543000FFE700984068C06840F21011C2F2000116
:105440000860019842F6DC51C2F200010860FFE7F3
:1054500004B080BD80B582B04EF62051CEF200017E
:10546000086840F47F000860086840F07F400860EA
:10547000FFF72CFE40F20C01C2F200010020019067
:105480000860FFF7B1FD4EF63471CEF200010868F6
:1054900040F040400860FEF7E3F8FFF759FFFEF7E1
:1054A00091FA019802B080BD80B582B04FF0100033
:1054B00080F31188BFF36F8FBFF34F8F009000F020
:1054C0007FFB40B1FFE74EF60451CEF200014FF0F2
:1054D00080500860FFE700200190019880F3118858
:1054E00002B080BD80B588B084460A98CDF81CC053
:1054F0000691059204938DF80F0000200290079802
:1055000010B3FFE70498F8B1FFE7059818B1FFE77B
:105510000698C8B1FFE7059818B9FFE7069898B94B
:10552000FFE7049802900299012081F8460007984D
:105530000699059A9DF80F30DDF808C0EE46CEF8C2
:1055400000C0FDF7AFFE00E0FFE7029808B080BDA5
:1055500080B584B0039002910120019003980090DF
:105560000098002856D0FFE70098C06B002851D063
:10557000FFE70098C26B016C4FF0FF30B0FBF2F018
:10558000884247D3FFE7FFF739FD00990B68C86BE6
:105590000A6C00FB02308860009900208863009943
:1055A0000868486000990B68C86B0A6C013800FBFA
:1055B0000230C8600099FF2081F84400009981F80A
:1055C00045000298D0B9FFE700980069A0B1FFE755
:1055D0000098103000F076FC60B1FFE74EF6045101
:1055E000CEF200014FF080500860BFF34F8FBFF341
:1055F0006F8F00E0FFE700E0FFE708E00098103061
:10560000FFF79CFC00982430FFF798FCFFE7FFF7BA
:105610000DFD02E000200190FFE7019804B080BD7D
:1056200080B58AB0089007910692059300200490F7
:1056300008980090FFE7FFF7E1FC0098806B009965
:10564000C96B884204D3FFE70598022834D1FFE7ED
:1056500000980799059AFDF70DFD03900098406AA0
:10566000A0B1FFE70098243000F02CFC60B1FFE708
:105670004EF60451CEF200014FF080500860BFF3A7
:105680004F8FBFF36F8F00E0FFE710E0039860B12A
:10569000FFE74EF60451CEF200014FF08050086053
:1056A000BFF34F8FBFF36F8F00E0FFE7FFE7FFF718
:1056B000BDFC0120099065E0069828B9FFE7FFF7D7
:1056C000B5FC002009905DE0049830B9FFE701A81F
:1056D000FFF776FD0120049000E0FFE7FFE7FFE71A
:1056E000FFF7A4FCFFF72CFEFFF788FC009890F969
:1056F0004400013028B9FFE70099002081F84400F8
:10570000FFE7009890F94500013028B9FFE70099BC
:10571000002081F84500FFE7FFF788FC01A806A9F3
:1057200000F048F928BBFFE70098FDF781FFC8B1FA
:10573000FFE7009810300699FFF75CFD0098FEF730
:1057400065F900F07DFC60B9FFE74EF60451CEF23A
:1057500000014FF080500860BFF34F8FBFF36F8F91
:10576000FFE705E00098FEF751F900F069FCFFE75C
:1057700007E00098FEF74AF900F062FC002009906B
:1057800000E058E709980AB080BD000080B58EB0EF
:105790000A900991089207930A980490EFF31181F7
:1057A0004FF0100080F31188BFF36F8FBFF34F8F5E
:1057B0000C910B900C9805900498806B0499C96B20
:1057C000884204D3FFE7079802283DD1FFE70498F9
:1057D00090F845008DF80F000498806B02900498B3
:1057E0000999079AFDF746FC9DF90F000130B8B9F9
:1057F000FFE70498406A88B1FFE70498243000F07E
:1058000061FB48B1FFE7089820B1FFE70899012044
:10581000086000E0FFE700E0FFE700E0FFE710E0DE
:10582000FFF754FB01909DF90F000199884207D2C0
:10583000FFE79DF80F000130049981F84500FFE76C
:10584000FFE70120069002E000200690FFE70598A0
:105850000D900D9880F3118806980EB080BD000061
:1058600080B58AB0089007910692002005900898AC
:105870000290FFE7FFF7C2FB0298806B019001984E
:1058800030B3FFE702980799FDF7D2FB0198013882
:105890000299886302980069A0B1FFE7029810306E
:1058A00000F010FB60B1FFE74EF60451CEF20001AC
:1058B0004FF080500860BFF34F8FBFF36F8F00E051
:1058C000FFE700E0FFE7FFF7B1FB012009906DE083
:1058D000069828B9FFE7FFF7A9FB0020099065E0CB
:1058E000059830B9FFE703A8FFF76AFC012005908F
:1058F00000E0FFE7FFE7FFE7FFF798FBFFF720FD7A
:10590000FFF77CFB029890F94400013028B9FFE7CB
:105910000299002081F84400FFE7029890F94500C1
:10592000013028B9FFE70299002081F84500FFE720
:10593000FFF77CFB03A806A900F03CF830BBFFE7AB
:105940000298FDF761FED0B1FFE702982430069976
:10595000FFF750FC0298FEF759F800F071FB60B9B0
:10596000FFE74EF60451CEF200014FF08050086080
:10597000BFF34F8FBFF36F8F00E0FFE705E00298A2
:10598000FEF744F800F05CFBFFE70EE00298FEF73C
:105990003DF800F055FB0298FDF736FE18B1FFE721
:1059A0000020099002E0FFE7FFE763E709980AB0EB
:1059B00080BD000080B586B005900491FFF71EFB06
:1059C00043F29020C2F2000000680290029805990C
:1059D0004968401A019004980068013018B9FFE73F
:1059E000002003902EE043F23820C2F2000000684D
:1059F0000599096888420CD0FFE702980599496823
:105A0000884206D3FFE70120039004990020086034
:105A100017E001980499096888420BD2FFE7019AC0
:105A200004990868801A08600598FFF7C9FB0020F0
:105A3000039005E004990020086001200390FFE72F
:105A4000FFE7FFE7FFF7F2FA039806B080BD00001A
:105A500070B58CB0DDF844C0DDF840C00B900A9101
:105A6000ADF826200893BDF826008000FEF7E4FC80
:105A700005900598A0B1FFE75C20FEF7DDFC0790DC
:105A8000079840B1FFE707985C21FAF706FC0598F4
:105A90000799086303E00598FFF7DCFAFFE702E0E7
:105AA00000200790FFE70798F0B1FFE7079800266E
:105AB00080F859600B980A99BDF82620089BDDF8FC
:105AC00040C0119C079DEE46CEF80C60CEF8085001
:105AD000CEF80440CEF800C0FDF708FC0798FDF7AB
